{
  "contractName": "broccoli",
  "abi": [
    {
      "inputs": [
        {
          "internalType": "uint256",
          "name": "_minimumDepositRatio",
          "type": "uint256"
        },
        {
          "internalType": "uint256",
          "name": "_cut",
          "type": "uint256"
        }
      ],
      "stateMutability": "nonpayable",
      "type": "constructor"
    },
    {
      "inputs": [],
      "name": "AlreadySold",
      "type": "error"
    },
    {
      "inputs": [],
      "name": "ItemDoesNotExist",
      "type": "error"
    },
    {
      "inputs": [],
      "name": "MinimumDepositNotMet",
      "type": "error"
    },
    {
      "inputs": [],
      "name": "NotEnoughEther",
      "type": "error"
    },
    {
      "inputs": [],
      "name": "Unauthorized",
      "type": "error"
    },
    {
      "stateMutability": "payable",
      "type": "receive"
    },
    {
      "inputs": [
        {
          "internalType": "uint256",
          "name": "id",
          "type": "uint256"
        }
      ],
      "name": "getItem",
      "outputs": [
        {
          "components": [
            {
              "internalType": "address payable",
              "name": "seller",
              "type": "address"
            },
            {
              "internalType": "address payable",
              "name": "buyer",
              "type": "address"
            },
            {
              "internalType": "string",
              "name": "name",
              "type": "string"
            },
            {
              "internalType": "string",
              "name": "description",
              "type": "string"
            },
            {
              "internalType": "uint256",
              "name": "price",
              "type": "uint256"
            },
            {
              "internalType": "string",
              "name": "image",
              "type": "string"
            },
            {
              "internalType": "uint8",
              "name": "category",
              "type": "uint8"
            },
            {
              "internalType": "uint8",
              "name": "subCategory",
              "type": "uint8"
            },
            {
              "internalType": "uint256",
              "name": "timestamp",
              "type": "uint256"
            },
            {
              "internalType": "uint256",
              "name": "runtime",
              "type": "uint256"
            },
            {
              "internalType": "uint256",
              "name": "deposit",
              "type": "uint256"
            }
          ],
          "internalType": "struct broccoli.Item",
          "name": "",
          "type": "tuple"
        }
      ],
      "stateMutability": "view",
      "type": "function"
    },
    {
      "inputs": [
        {
          "internalType": "uint256",
          "name": "id",
          "type": "uint256"
        }
      ],
      "name": "getSeller",
      "outputs": [
        {
          "internalType": "address payable",
          "name": "",
          "type": "address"
        }
      ],
      "stateMutability": "view",
      "type": "function"
    },
    {
      "inputs": [
        {
          "internalType": "address",
          "name": "newOwner",
          "type": "address"
        }
      ],
      "name": "transferOwnership",
      "outputs": [],
      "stateMutability": "nonpayable",
      "type": "function"
    },
    {
      "inputs": [
        {
          "internalType": "uint256",
          "name": "_cut",
          "type": "uint256"
        }
      ],
      "name": "setCut",
      "outputs": [],
      "stateMutability": "nonpayable",
      "type": "function"
    },
    {
      "inputs": [
        {
          "internalType": "uint256",
          "name": "_minimumDepositRatio",
          "type": "uint256"
        }
      ],
      "name": "setMinimumDepositRatio",
      "outputs": [],
      "stateMutability": "nonpayable",
      "type": "function"
    },
    {
      "inputs": [
        {
          "internalType": "string",
          "name": "_name",
          "type": "string"
        },
        {
          "internalType": "string",
          "name": "_description",
          "type": "string"
        },
        {
          "internalType": "uint256",
          "name": "_price",
          "type": "uint256"
        },
        {
          "internalType": "string",
          "name": "_image",
          "type": "string"
        },
        {
          "internalType": "uint8",
          "name": "_category",
          "type": "uint8"
        },
        {
          "internalType": "uint8",
          "name": "_subCategory",
          "type": "uint8"
        },
        {
          "internalType": "uint256",
          "name": "_timestamp",
          "type": "uint256"
        },
        {
          "internalType": "uint256",
          "name": "_runtime",
          "type": "uint256"
        }
      ],
      "name": "addItem",
      "outputs": [
        {
          "internalType": "uint256",
          "name": "id",
          "type": "uint256"
        }
      ],
      "stateMutability": "payable",
      "type": "function"
    },
    {
      "inputs": [
        {
          "internalType": "uint256",
          "name": "id",
          "type": "uint256"
        }
      ],
      "name": "buyItem",
      "outputs": [],
      "stateMutability": "payable",
      "type": "function"
    },
    {
      "inputs": [],
      "name": "withdraw",
      "outputs": [],
      "stateMutability": "nonpayable",
      "type": "function"
    }
  ],
  "bytecode": "0x60806040523480156200001157600080fd5b5060405162001598380380620015988339818101604052810190620000379190620000ce565b33600560006101000a81548173ffffffffffffffffffffffffffffffffffffffff021916908373ffffffffffffffffffffffffffffffffffffffff1602179055508160038190555080600481905550505062000115565b600080fd5b6000819050919050565b620000a88162000093565b8114620000b457600080fd5b50565b600081519050620000c8816200009d565b92915050565b60008060408385031215620000e857620000e76200008e565b5b6000620000f885828601620000b7565b92505060206200010b85828601620000b7565b9150509250929050565b61147380620001256000396000f3fe60806040526004361061007f5760003560e01c80637ac2e3ac1161004e5780637ac2e3ac14610131578063d6a9de5114610161578063e7fb74c71461019e578063f2fde38b146101ba57610086565b80633129e7731461008b5780633ccfd60b146100c857806345f92ec8146100df578063727cdf871461010857610086565b3661008657005b600080fd5b34801561009757600080fd5b506100b260048036038101906100ad9190610d9b565b6101e3565b6040516100bf9190610fca565b60405180910390f35b3480156100d457600080fd5b506100dd610512565b005b3480156100eb57600080fd5b5061010660048036038101906101019190610d9b565b6105e5565b005b34801561011457600080fd5b5061012f600480360381019061012a9190610d9b565b610678565b005b61014b6004803603810190610146919061107d565b61070b565b60405161015891906111a4565b60405180910390f35b34801561016d57600080fd5b5061018860048036038101906101839190610d9b565b61088b565b60405161019591906111ce565b60405180910390f35b6101b860048036038101906101b39190610d9b565b610908565b005b3480156101c657600080fd5b506101e160048036038101906101dc9190611227565b610ae8565b005b6101eb610c2c565b81600154811115610228576040517f9a749d8100000000000000000000000000000000000000000000000000000000815260040160405180910390fd5b600080848152602001908152602001600020604051806101600160405290816000820160009054906101000a900473ffffffffffffffffffffffffffffffffffffffff1673ffffffffffffffffffffffffffffffffffffffff1673ffffffffffffffffffffffffffffffffffffffff1681526020016001820160009054906101000a900473ffffffffffffffffffffffffffffffffffffffff1673ffffffffffffffffffffffffffffffffffffffff1673ffffffffffffffffffffffffffffffffffffffff16815260200160028201805461030290611283565b80601f016020809104026020016040519081016040528092919081815260200182805461032e90611283565b801561037b5780601f106103505761010080835404028352916020019161037b565b820191906000526020600020905b81548152906001019060200180831161035e57829003601f168201915b5050505050815260200160038201805461039490611283565b80601f01602080910402602001604051908101604052809291908181526020018280546103c090611283565b801561040d5780601f106103e25761010080835404028352916020019161040d565b820191906000526020600020905b8154815290600101906020018083116103f057829003601f168201915b505050505081526020016004820154815260200160058201805461043090611283565b80601f016020809104026020016040519081016040528092919081815260200182805461045c90611283565b80156104a95780601f1061047e576101008083540402835291602001916104a9565b820191906000526020600020905b81548152906001019060200180831161048c57829003601f168201915b505050505081526020016006820160009054906101000a900460ff1660ff1660ff1681526020016006820160019054906101000a900460ff1660ff1660ff1681526020016007820154815260200160088201548152602001600982015481525050915050919050565b6000600260003373ffffffffffffffffffffffffffffffffffffffff1673ffffffffffffffffffffffffffffffffffffffff1681526020019081526020016000205490506000600260003373ffffffffffffffffffffffffffffffffffffffff1673ffffffffffffffffffffffffffffffffffffffff168152602001908152602001600020819055503373ffffffffffffffffffffffffffffffffffffffff166108fc829081150290604051600060405180830381858888f193505050501580156105e1573d6000803e3d6000fd5b5050565b600560009054906101000a900473ffffffffffffffffffffffffffffffffffffffff168073ffffffffffffffffffffffffffffffffffffffff163373ffffffffffffffffffffffffffffffffffffffff161461066d576040517f82b4290000000000000000000000000000000000000000000000000000000000815260040160405180910390fd5b816003819055505050565b600560009054906101000a900473ffffffffffffffffffffffffffffffffffffffff168073ffffffffffffffffffffffffffffffffffffffff163373ffffffffffffffffffffffffffffffffffffffff1614610700576040517f82b4290000000000000000000000000000000000000000000000000000000000815260040160405180910390fd5b816004819055505050565b6000876003546064818361071f91906112e4565b610729919061136d565b341015610762576040517f20d01f0600000000000000000000000000000000000000000000000000000000815260040160405180910390fd5b600160008154809291906107759061139e565b919050556001819055506000806000600154815260200190815260200160002090508e8e8260020191906107aa929190610cb8565b508c8c8260030191906107be929190610cb8565b508a816004018190555089898260050191906107db929190610cb8565b50878160060160006101000a81548160ff021916908360ff160217905550868160060160016101000a81548160ff021916908360ff160217905550858160070181905550848160080181905550338160000160006101000a81548173ffffffffffffffffffffffffffffffffffffffff021916908373ffffffffffffffffffffffffffffffffffffffff16021790555034816009018190555060015493505050509b9a5050505050505050505050565b6000816001548111156108ca576040517f9a749d8100000000000000000000000000000000000000000000000000000000815260040160405180910390fd5b60008084815260200190815260200160002060000160009054906101000a900473ffffffffffffffffffffffffffffffffffffffff16915050919050565b80600154811115610945576040517f9a749d8100000000000000000000000000000000000000000000000000000000815260040160405180910390fd5b61094e82610bb5565b80341015610988576040517f8a0d377900000000000000000000000000000000000000000000000000000000815260040160405180910390fd5b600073ffffffffffffffffffffffffffffffffffffffff1660008085815260200190815260200160002060010160009054906101000a900473ffffffffffffffffffffffffffffffffffffffff1673ffffffffffffffffffffffffffffffffffffffff161415610ab1573360008085815260200190815260200160002060010160006101000a81548173ffffffffffffffffffffffffffffffffffffffff021916908373ffffffffffffffffffffffffffffffffffffffff160217905550610a4f83610bed565b60026000610a5c8661088b565b73ffffffffffffffffffffffffffffffffffffffff1673ffffffffffffffffffffffffffffffffffffffff1681526020019081526020016000206000828254610aa591906113e7565b92505081905550610ae3565b6040517fda17dbf800000000000000000000000000000000000000000000000000000000815260040160405180910390fd5b505050565b600560009054906101000a900473ffffffffffffffffffffffffffffffffffffffff168073ffffffffffffffffffffffffffffffffffffffff163373ffffffffffffffffffffffffffffffffffffffff1614610b70576040517f82b4290000000000000000000000000000000000000000000000000000000000815260040160405180910390fd5b81600560006101000a81548173ffffffffffffffffffffffffffffffffffffffff021916908373ffffffffffffffffffffffffffffffffffffffff1602179055505050565b6000606460045460008085815260200190815260200160002060040154610bdc91906112e4565b610be6919061136d565b9050919050565b60008060008381526020019081526020016000206009015460008084815260200190815260200160002060040154610c2591906113e7565b9050919050565b604051806101600160405280600073ffffffffffffffffffffffffffffffffffffffff168152602001600073ffffffffffffffffffffffffffffffffffffffff16815260200160608152602001606081526020016000815260200160608152602001600060ff168152602001600060ff1681526020016000815260200160008152602001600081525090565b828054610cc490611283565b90600052602060002090601f016020900481019282610ce65760008555610d2d565b82601f10610cff57803560ff1916838001178555610d2d565b82800160010185558215610d2d579182015b82811115610d2c578235825591602001919060010190610d11565b5b509050610d3a9190610d3e565b5090565b5b80821115610d57576000816000905550600101610d3f565b5090565b600080fd5b600080fd5b6000819050919050565b610d7881610d65565b8114610d8357600080fd5b50565b600081359050610d9581610d6f565b92915050565b600060208284031215610db157610db0610d5b565b5b6000610dbf84828501610d86565b91505092915050565b600073ffffffffffffffffffffffffffffffffffffffff82169050919050565b6000610df382610dc8565b9050919050565b610e0381610de8565b82525050565b600081519050919050565b600082825260208201905092915050565b60005b83811015610e43578082015181840152602081019050610e28565b83811115610e52576000848401525b50505050565b6000601f19601f8301169050919050565b6000610e7482610e09565b610e7e8185610e14565b9350610e8e818560208601610e25565b610e9781610e58565b840191505092915050565b610eab81610d65565b82525050565b600060ff82169050919050565b610ec781610eb1565b82525050565b600061016083016000830151610ee66000860182610dfa565b506020830151610ef96020860182610dfa565b5060408301518482036040860152610f118282610e69565b91505060608301518482036060860152610f2b8282610e69565b9150506080830151610f406080860182610ea2565b5060a083015184820360a0860152610f588282610e69565b91505060c0830151610f6d60c0860182610ebe565b5060e0830151610f8060e0860182610ebe565b50610100830151610f95610100860182610ea2565b50610120830151610faa610120860182610ea2565b50610140830151610fbf610140860182610ea2565b508091505092915050565b60006020820190508181036000830152610fe48184610ecd565b905092915050565b600080fd5b600080fd5b600080fd5b60008083601f84011261101157611010610fec565b5b8235905067ffffffffffffffff81111561102e5761102d610ff1565b5b60208301915083600182028301111561104a57611049610ff6565b5b9250929050565b61105a81610eb1565b811461106557600080fd5b50565b60008135905061107781611051565b92915050565b60008060008060008060008060008060006101008c8e0312156110a3576110a2610d5b565b5b60008c013567ffffffffffffffff8111156110c1576110c0610d60565b5b6110cd8e828f01610ffb565b9b509b505060208c013567ffffffffffffffff8111156110f0576110ef610d60565b5b6110fc8e828f01610ffb565b9950995050604061110f8e828f01610d86565b97505060608c013567ffffffffffffffff8111156111305761112f610d60565b5b61113c8e828f01610ffb565b9650965050608061114f8e828f01611068565b94505060a06111608e828f01611068565b93505060c06111718e828f01610d86565b92505060e06111828e828f01610d86565b9150509295989b509295989b9093969950565b61119e81610d65565b82525050565b60006020820190506111b96000830184611195565b92915050565b6111c881610de8565b82525050565b60006020820190506111e360008301846111bf565b92915050565b60006111f482610dc8565b9050919050565b611204816111e9565b811461120f57600080fd5b50565b600081359050611221816111fb565b92915050565b60006020828403121561123d5761123c610d5b565b5b600061124b84828501611212565b91505092915050565b7f4e487b7100000000000000000000000000000000000000000000000000000000600052602260045260246000fd5b6000600282049050600182168061129b57607f821691505b602082108114156112af576112ae611254565b5b50919050565b7f4e487b7100000000000000000000000000000000000000000000000000000000600052601160045260246000fd5b60006112ef82610d65565b91506112fa83610d65565b9250817fffffffffffffffffffffffffffffffffffffffffffffffffffffffffffffffff0483118215151615611333576113326112b5565b5b828202905092915050565b7f4e487b7100000000000000000000000000000000000000000000000000000000600052601260045260246000fd5b600061137882610d65565b915061138383610d65565b9250826113935761139261133e565b5b828204905092915050565b60006113a982610d65565b91507fffffffffffffffffffffffffffffffffffffffffffffffffffffffffffffffff8214156113dc576113db6112b5565b5b600182019050919050565b60006113f282610d65565b91506113fd83610d65565b9250827fffffffffffffffffffffffffffffffffffffffffffffffffffffffffffffffff03821115611432576114316112b5565b5b82820190509291505056fea26469706673582212204cbbaf6aff2eda665e9964c97c62b7d0af8debb557fec8221bc8ffb69af74aae64736f6c634300080b0033",
  "immutableReferences": {},
  "source": "// SPDX-License-Identifier: MIT\npragma solidity >=0.8.0 <0.9.0;\n\ncontract broccoli {\n  struct Item {\n      address payable seller;\n      address payable buyer;\n      string name;\n      string description;\n      uint price;\n      string image;\n      uint8 category;\n      uint8 subCategory;\n      uint timestamp;\n      uint runtime;\n      uint deposit;\n  }\n\n  mapping(uint => Item) items;\n  uint numItems;\n  mapping(address => uint) pendingWithdrawals;\n  uint minimumDepositRatio;\n  uint cut;\n  address owner;\n\n  error Unauthorized();\n  error MinimumDepositNotMet();\n  error NotEnoughEther();\n  error AlreadySold();\n  error ItemDoesNotExist();\n\n  modifier onlyBy(address _account) {\n    if (msg.sender != _account)\n        revert Unauthorized();\n    _;\n  }\n\n  modifier costs(uint _amount) {\n    if (msg.value < _amount)\n        revert NotEnoughEther();\n    _;\n    //if wanting to send rest ether back - else keep them as donation (-:\n    //if (msg.value > _amount)\n    //    payable(msg.sender).transfer(msg.value - _amount)\n  }\n\n  modifier minimumDeposit(uint _askingPrice, uint _minimumDepositRatio) {\n    if (msg.value < _askingPrice * _minimumDepositRatio / 100)\n        revert MinimumDepositNotMet();\n    _;\n  }\n\n  modifier itemExists(uint id) {\n    if (id > numItems) \n        revert ItemDoesNotExist();\n    _;   \n  }\n\n  constructor(uint _minimumDepositRatio, uint _cut) {\n    owner = msg.sender;\n    minimumDepositRatio = _minimumDepositRatio;\n    cut = _cut;\n  }\n\n\n  //Public Getters\n  function getItem(uint256 id) public view itemExists(id) returns (Item memory) {\n    return items[id];\n  }\n  \n  function getSeller(uint256 id) public view itemExists(id) returns (address payable) {\n    return items[id].seller; \n  }\n\n\n  //Public Methods\n  function transferOwnership(address newOwner) public onlyBy(owner) {\n    owner = newOwner;\n  }\n\n  function setCut(uint _cut) public onlyBy(owner) {\n    cut = _cut;\n  }\n\n  function setMinimumDepositRatio(uint _minimumDepositRatio) public onlyBy(owner) {\n    minimumDepositRatio = _minimumDepositRatio;\n  }\n\n  function addItem(string calldata _name, string calldata _description, uint _price, string calldata _image, uint8 _category, uint8 _subCategory, uint _timestamp, uint _runtime) payable public minimumDeposit(_price, minimumDepositRatio) returns(uint id) {\n    numItems = numItems++;\n    Item storage i = items[numItems]; \n    i.name = _name;\n    i.description = _description;\n    i.price = _price;\n    i.image = _image;\n    i.category = _category;\n    i.subCategory = _subCategory;\n    i.timestamp = _timestamp;\n    i.runtime = _runtime;\n    i.seller = payable(msg.sender);\n    i.deposit = msg.value;\n    return numItems;\n  }\n\n  function buyItem(uint256 id) payable public itemExists(id) costs(getPriceToPay(id)) {\n    if(items[id].buyer == address(0)) {\n        items[id].buyer = payable(msg.sender);\n        pendingWithdrawals[getSeller(id)] += getAmountToSendToSeller(id);\n    } else {\n        revert AlreadySold();\n    }\n  }\n\n  //Withdraw pattern instead of direct transfer after item has sold to prevent locking contract in transfer loop\n  //https://docs.soliditylang.org/en/latest/common-patterns.html#withdrawal-from-contracts\n  function withdraw() public {\n    uint amount = pendingWithdrawals[msg.sender];\n    //zero the pending refund before sending to prevent re-entrancy attacks\n    pendingWithdrawals[msg.sender] = 0;\n    payable(msg.sender).transfer(amount);\n  }\n\n  receive() external payable {\n    //receive ether as donations\n  }\n\n\n  //Internal Methods\n  function getPriceToPay(uint256 id) internal view returns (uint256) {\n    //return price that buyer has to pay (including site cut)\n    return items[id].price * cut / 100;\n  }\n\n  function getAmountToSendToSeller(uint256 id) internal view returns (uint256) {\n    //return amount to send to seller = asking price of item + deposit\n    return items[id].price + items[id].deposit;\n  }\n}\n",
  "sourcePath": "/home/staddle/verbose-broccoli/ethereum-contract/contracts/broccoli.sol",
  "compiler": {
    "name": "solc",
    "version": "0.8.11+commit.d7f03943.Emscripten.clang"
  },
  "schemaVersion": "3.4.5",
  "updatedAt": "2022-03-09T19:04:45.919Z",
  "devdoc": {
    "kind": "dev",
    "methods": {},
    "version": 1
  },
  "userdoc": {
    "kind": "user",
    "methods": {},
    "version": 1
  }
}