{
  "contractName": "broccoli",
  "abi": [
    {
      "inputs": [
        {
          "internalType": "uint256",
          "name": "_minimumDepositRatio",
          "type": "uint256"
        },
        {
          "internalType": "uint256",
          "name": "_cut",
          "type": "uint256"
        }
      ],
      "stateMutability": "nonpayable",
      "type": "constructor"
    },
    {
      "inputs": [],
      "name": "AlreadySold",
      "type": "error"
    },
    {
      "inputs": [],
      "name": "CutNotValid",
      "type": "error"
    },
    {
      "inputs": [],
      "name": "ItemDoesNotExist",
      "type": "error"
    },
    {
      "inputs": [],
      "name": "MinimumDepositNotMet",
      "type": "error"
    },
    {
      "inputs": [],
      "name": "MinimumDepositNotValid",
      "type": "error"
    },
    {
      "inputs": [],
      "name": "NotEnoughEther",
      "type": "error"
    },
    {
      "anonymous": false,
      "inputs": [
        {
          "indexed": true,
          "internalType": "address",
          "name": "donor",
          "type": "address"
        },
        {
          "indexed": false,
          "internalType": "uint256",
          "name": "amount",
          "type": "uint256"
        }
      ],
      "name": "DonationReceived",
      "type": "event"
    },
    {
      "anonymous": false,
      "inputs": [
        {
          "indexed": true,
          "internalType": "address",
          "name": "seller",
          "type": "address"
        },
        {
          "indexed": true,
          "internalType": "uint256",
          "name": "id",
          "type": "uint256"
        }
      ],
      "name": "ItemAdded",
      "type": "event"
    },
    {
      "anonymous": false,
      "inputs": [
        {
          "indexed": true,
          "internalType": "address",
          "name": "buyer",
          "type": "address"
        },
        {
          "indexed": true,
          "internalType": "uint256",
          "name": "id",
          "type": "uint256"
        }
      ],
      "name": "ItemBought",
      "type": "event"
    },
    {
      "anonymous": false,
      "inputs": [
        {
          "indexed": true,
          "internalType": "address",
          "name": "previousOwner",
          "type": "address"
        },
        {
          "indexed": true,
          "internalType": "address",
          "name": "newOwner",
          "type": "address"
        }
      ],
      "name": "OwnershipTransferred",
      "type": "event"
    },
    {
      "anonymous": false,
      "inputs": [
        {
          "indexed": false,
          "internalType": "address",
          "name": "account",
          "type": "address"
        }
      ],
      "name": "Paused",
      "type": "event"
    },
    {
      "anonymous": false,
      "inputs": [
        {
          "indexed": false,
          "internalType": "address",
          "name": "account",
          "type": "address"
        }
      ],
      "name": "Unpaused",
      "type": "event"
    },
    {
      "anonymous": false,
      "inputs": [
        {
          "indexed": true,
          "internalType": "address",
          "name": "withdrawer",
          "type": "address"
        },
        {
          "indexed": false,
          "internalType": "uint256",
          "name": "amount",
          "type": "uint256"
        }
      ],
      "name": "Withdrew",
      "type": "event"
    },
    {
      "inputs": [],
      "name": "cut",
      "outputs": [
        {
          "internalType": "uint256",
          "name": "",
          "type": "uint256"
        }
      ],
      "stateMutability": "view",
      "type": "function"
    },
    {
      "inputs": [],
      "name": "minimumDepositRatio",
      "outputs": [
        {
          "internalType": "uint256",
          "name": "",
          "type": "uint256"
        }
      ],
      "stateMutability": "view",
      "type": "function"
    },
    {
      "inputs": [],
      "name": "numItems",
      "outputs": [
        {
          "internalType": "uint256",
          "name": "",
          "type": "uint256"
        }
      ],
      "stateMutability": "view",
      "type": "function"
    },
    {
      "inputs": [],
      "name": "owner",
      "outputs": [
        {
          "internalType": "address",
          "name": "",
          "type": "address"
        }
      ],
      "stateMutability": "view",
      "type": "function"
    },
    {
      "inputs": [],
      "name": "paused",
      "outputs": [
        {
          "internalType": "bool",
          "name": "",
          "type": "bool"
        }
      ],
      "stateMutability": "view",
      "type": "function"
    },
    {
      "inputs": [],
      "name": "renounceOwnership",
      "outputs": [],
      "stateMutability": "nonpayable",
      "type": "function"
    },
    {
      "inputs": [
        {
          "internalType": "address",
          "name": "newOwner",
          "type": "address"
        }
      ],
      "name": "transferOwnership",
      "outputs": [],
      "stateMutability": "nonpayable",
      "type": "function"
    },
    {
      "stateMutability": "payable",
      "type": "receive"
    },
    {
      "inputs": [
        {
          "internalType": "uint256",
          "name": "id",
          "type": "uint256"
        }
      ],
      "name": "getItem",
      "outputs": [
        {
          "components": [
            {
              "internalType": "address payable",
              "name": "seller",
              "type": "address"
            },
            {
              "internalType": "address payable",
              "name": "buyer",
              "type": "address"
            },
            {
              "internalType": "string",
              "name": "name",
              "type": "string"
            },
            {
              "internalType": "string",
              "name": "description",
              "type": "string"
            },
            {
              "internalType": "uint256",
              "name": "price",
              "type": "uint256"
            },
            {
              "internalType": "string",
              "name": "image",
              "type": "string"
            },
            {
              "internalType": "uint8",
              "name": "category",
              "type": "uint8"
            },
            {
              "internalType": "uint8",
              "name": "subCategory",
              "type": "uint8"
            },
            {
              "internalType": "uint256",
              "name": "timestamp",
              "type": "uint256"
            },
            {
              "internalType": "uint256",
              "name": "runtime",
              "type": "uint256"
            },
            {
              "internalType": "uint256",
              "name": "deposit",
              "type": "uint256"
            }
          ],
          "internalType": "struct broccoli.Item",
          "name": "",
          "type": "tuple"
        }
      ],
      "stateMutability": "view",
      "type": "function"
    },
    {
      "inputs": [
        {
          "internalType": "uint256",
          "name": "id",
          "type": "uint256"
        }
      ],
      "name": "getSeller",
      "outputs": [
        {
          "internalType": "address payable",
          "name": "",
          "type": "address"
        }
      ],
      "stateMutability": "view",
      "type": "function"
    },
    {
      "inputs": [
        {
          "internalType": "uint256",
          "name": "_cut",
          "type": "uint256"
        }
      ],
      "name": "setCut",
      "outputs": [],
      "stateMutability": "nonpayable",
      "type": "function"
    },
    {
      "inputs": [
        {
          "internalType": "uint256",
          "name": "_minimumDepositRatio",
          "type": "uint256"
        }
      ],
      "name": "setMinimumDepositRatio",
      "outputs": [],
      "stateMutability": "nonpayable",
      "type": "function"
    },
    {
      "inputs": [],
      "name": "pause",
      "outputs": [],
      "stateMutability": "nonpayable",
      "type": "function"
    },
    {
      "inputs": [],
      "name": "unpause",
      "outputs": [],
      "stateMutability": "nonpayable",
      "type": "function"
    },
    {
      "inputs": [
        {
          "internalType": "string",
          "name": "_name",
          "type": "string"
        },
        {
          "internalType": "string",
          "name": "_description",
          "type": "string"
        },
        {
          "internalType": "uint256",
          "name": "_price",
          "type": "uint256"
        },
        {
          "internalType": "string",
          "name": "_image",
          "type": "string"
        },
        {
          "internalType": "uint8",
          "name": "_category",
          "type": "uint8"
        },
        {
          "internalType": "uint8",
          "name": "_subCategory",
          "type": "uint8"
        },
        {
          "internalType": "uint256",
          "name": "_timestamp",
          "type": "uint256"
        },
        {
          "internalType": "uint256",
          "name": "_runtime",
          "type": "uint256"
        }
      ],
      "name": "addItem",
      "outputs": [],
      "stateMutability": "payable",
      "type": "function"
    },
    {
      "inputs": [
        {
          "internalType": "uint256",
          "name": "id",
          "type": "uint256"
        }
      ],
      "name": "buyItem",
      "outputs": [],
      "stateMutability": "payable",
      "type": "function"
    },
    {
      "inputs": [],
      "name": "withdraw",
      "outputs": [],
      "stateMutability": "nonpayable",
      "type": "function"
    }
  ],
  "bytecode": "0x60806040523480156200001157600080fd5b506040516200227a3803806200227a833981810160405281019062000037919062000228565b60008060006101000a81548160ff02191690831515021790555062000071620000656200011b60201b60201c565b6200012360201b60201c565b80606481108062000082575060c881115b15620000ba576040517f6a1bb84100000000000000000000000000000000000000000000000000000000815260040160405180910390fd5b826000811080620000cb5750606481115b1562000103576040517f8823eaff00000000000000000000000000000000000000000000000000000000815260040160405180910390fd5b8360048190555082600581905550505050506200026f565b600033905090565b60008060019054906101000a900473ffffffffffffffffffffffffffffffffffffffff16905081600060016101000a81548173ffffffffffffffffffffffffffffffffffffffff021916908373ffffffffffffffffffffffffffffffffffffffff1602179055508173ffffffffffffffffffffffffffffffffffffffff168173ffffffffffffffffffffffffffffffffffffffff167f8be0079c531659141344cd1fd0a4f28419497f9722a3daafe3b4186f6b6457e060405160405180910390a35050565b600080fd5b6000819050919050565b6200020281620001ed565b81146200020e57600080fd5b50565b6000815190506200022281620001f7565b92915050565b60008060408385031215620002425762000241620001e8565b5b6000620002528582860162000211565b9250506020620002658582860162000211565b9150509250929050565b611ffb806200027f6000396000f3fe6080604052600436106100f75760003560e01c80637ac2e3ac1161008a578063e6fd604c11610059578063e6fd604c14610316578063e7fb74c714610341578063e85565bb1461035d578063f2fde38b146103885761014c565b80637ac2e3ac1461027b5780638456cb59146102975780638da5cb5b146102ae578063d6a9de51146102d95761014c565b80635bfadae4116100c65780635bfadae4146101e55780635c975abb14610210578063715018a61461023b578063727cdf87146102525761014c565b80633129e773146101515780633ccfd60b1461018e5780633f4ba83a146101a557806345f92ec8146101bc5761014c565b3661014c573373ffffffffffffffffffffffffffffffffffffffff167f264f630d9efa0d07053a31163641d9fcc0adafc9d9e76f1c37c2ce3a558d2c523460405161014291906116b5565b60405180910390a2005b600080fd5b34801561015d57600080fd5b5061017860048036038101906101739190611706565b6103b1565b6040516101859190611935565b60405180910390f35b34801561019a57600080fd5b506101a36106e1565b005b3480156101b157600080fd5b506101ba61084a565b005b3480156101c857600080fd5b506101e360048036038101906101de9190611706565b6108d0565b005b3480156101f157600080fd5b506101fa6109e6565b60405161020791906116b5565b60405180910390f35b34801561021c57600080fd5b506102256109ec565b6040516102329190611972565b60405180910390f35b34801561024757600080fd5b50610250610a02565b005b34801561025e57600080fd5b5061027960048036038101906102749190611706565b610a8a565b005b61029560048036038101906102909190611a1e565b610ba0565b005b3480156102a357600080fd5b506102ac610da6565b005b3480156102ba57600080fd5b506102c3610e2c565b6040516102d09190611b57565b60405180910390f35b3480156102e557600080fd5b5061030060048036038101906102fb9190611706565b610e55565b60405161030d9190611b81565b60405180910390f35b34801561032257600080fd5b5061032b610ed3565b60405161033891906116b5565b60405180910390f35b61035b60048036038101906103569190611706565b610ed9565b005b34801561036957600080fd5b5061037261118e565b60405161037f91906116b5565b60405180910390f35b34801561039457600080fd5b506103af60048036038101906103aa9190611bc8565b611194565b005b6103b961156d565b816002548111156103f6576040517f9a749d8100000000000000000000000000000000000000000000000000000000815260040160405180910390fd5b60016000848152602001908152602001600020604051806101600160405290816000820160009054906101000a900473ffffffffffffffffffffffffffffffffffffffff1673ffffffffffffffffffffffffffffffffffffffff1673ffffffffffffffffffffffffffffffffffffffff1681526020016001820160009054906101000a900473ffffffffffffffffffffffffffffffffffffffff1673ffffffffffffffffffffffffffffffffffffffff1673ffffffffffffffffffffffffffffffffffffffff1681526020016002820180546104d190611c24565b80601f01602080910402602001604051908101604052809291908181526020018280546104fd90611c24565b801561054a5780601f1061051f5761010080835404028352916020019161054a565b820191906000526020600020905b81548152906001019060200180831161052d57829003601f168201915b5050505050815260200160038201805461056390611c24565b80601f016020809104026020016040519081016040528092919081815260200182805461058f90611c24565b80156105dc5780601f106105b1576101008083540402835291602001916105dc565b820191906000526020600020905b8154815290600101906020018083116105bf57829003601f168201915b50505050508152602001600482015481526020016005820180546105ff90611c24565b80601f016020809104026020016040519081016040528092919081815260200182805461062b90611c24565b80156106785780601f1061064d57610100808354040283529160200191610678565b820191906000526020600020905b81548152906001019060200180831161065b57829003601f168201915b505050505081526020016006820160009054906101000a900460ff1660ff1660ff1681526020016006820160019054906101000a900460ff1660ff1660ff1681526020016007820154815260200160088201548152602001600982015481525050915050919050565b6106e96109ec565b15610729576040517f08c379a000000000000000000000000000000000000000000000000000000000815260040161072090611cb3565b60405180910390fd5b6000600360003373ffffffffffffffffffffffffffffffffffffffff1673ffffffffffffffffffffffffffffffffffffffff1681526020019081526020016000205490506000600360003373ffffffffffffffffffffffffffffffffffffffff1673ffffffffffffffffffffffffffffffffffffffff168152602001908152602001600020819055503373ffffffffffffffffffffffffffffffffffffffff166108fc829081150290604051600060405180830381858888f193505050501580156107f8573d6000803e3d6000fd5b503373ffffffffffffffffffffffffffffffffffffffff167fb244b9a17ad633c6e83b7983ee04320484956a68ddbe96a0b70dfca1cf19d7238260405161083f91906116b5565b60405180910390a250565b61085261128c565b73ffffffffffffffffffffffffffffffffffffffff16610870610e2c565b73ffffffffffffffffffffffffffffffffffffffff16146108c6576040517f08c379a00000000000000000000000000000000000000000000000000000000081526004016108bd90611d1f565b60405180910390fd5b6108ce611294565b565b6108d861128c565b73ffffffffffffffffffffffffffffffffffffffff166108f6610e2c565b73ffffffffffffffffffffffffffffffffffffffff161461094c576040517f08c379a000000000000000000000000000000000000000000000000000000000815260040161094390611d1f565b60405180910390fd5b6109546109ec565b15610994576040517f08c379a000000000000000000000000000000000000000000000000000000000815260040161098b90611cb3565b60405180910390fd5b8060008110806109a45750606481115b156109db576040517f8823eaff00000000000000000000000000000000000000000000000000000000815260040160405180910390fd5b816004819055505050565b60025481565b60008060009054906101000a900460ff16905090565b610a0a61128c565b73ffffffffffffffffffffffffffffffffffffffff16610a28610e2c565b73ffffffffffffffffffffffffffffffffffffffff1614610a7e576040517f08c379a0000000000000000000000000000000000000000000000000000000008152600401610a7590611d1f565b60405180910390fd5b610a886000611335565b565b610a9261128c565b73ffffffffffffffffffffffffffffffffffffffff16610ab0610e2c565b73ffffffffffffffffffffffffffffffffffffffff1614610b06576040517f08c379a0000000000000000000000000000000000000000000000000000000008152600401610afd90611d1f565b60405180910390fd5b610b0e6109ec565b15610b4e576040517f08c379a0000000000000000000000000000000000000000000000000000000008152600401610b4590611cb3565b60405180910390fd5b806064811080610b5e575060c881115b15610b95576040517f6a1bb84100000000000000000000000000000000000000000000000000000000815260040160405180910390fd5b816005819055505050565b610ba86109ec565b15610be8576040517f08c379a0000000000000000000000000000000000000000000000000000000008152600401610bdf90611cb3565b60405180910390fd5b8660045460648183610bfa9190611d6e565b610c049190611df7565b341015610c3d576040517f20d01f0600000000000000000000000000000000000000000000000000000000815260040160405180910390fd5b60026000815480929190610c5090611e28565b91905055600281905550600060016000600254815260200190815260200160002090508d8d826002019190610c869291906115f9565b508b8b826003019190610c9a9291906115f9565b508981600401819055508888826005019190610cb79291906115f9565b50868160060160006101000a81548160ff021916908360ff160217905550858160060160016101000a81548160ff021916908360ff160217905550848160070181905550838160080181905550338160000160006101000a81548173ffffffffffffffffffffffffffffffffffffffff021916908373ffffffffffffffffffffffffffffffffffffffff1602179055503481600901819055506002543373ffffffffffffffffffffffffffffffffffffffff167fbb93286bf5aa4db648045b04d0566e215c1df5d898c5f576bc6cb5ce6a1860d160405160405180910390a35050505050505050505050505050565b610dae61128c565b73ffffffffffffffffffffffffffffffffffffffff16610dcc610e2c565b73ffffffffffffffffffffffffffffffffffffffff1614610e22576040517f08c379a0000000000000000000000000000000000000000000000000000000008152600401610e1990611d1f565b60405180910390fd5b610e2a6113fa565b565b60008060019054906101000a900473ffffffffffffffffffffffffffffffffffffffff16905090565b600081600254811115610e94576040517f9a749d8100000000000000000000000000000000000000000000000000000000815260040160405180910390fd5b6001600084815260200190815260200160002060000160009054906101000a900473ffffffffffffffffffffffffffffffffffffffff16915050919050565b60055481565b610ee16109ec565b15610f21576040517f08c379a0000000000000000000000000000000000000000000000000000000008152600401610f1890611cb3565b60405180910390fd5b80600254811115610f5e576040517f9a749d8100000000000000000000000000000000000000000000000000000000815260040160405180910390fd5b610f678261149c565b80341015610fa1576040517f8a0d377900000000000000000000000000000000000000000000000000000000815260040160405180910390fd5b600073ffffffffffffffffffffffffffffffffffffffff166001600085815260200190815260200160002060010160009054906101000a900473ffffffffffffffffffffffffffffffffffffffff1673ffffffffffffffffffffffffffffffffffffffff16141561115757336001600085815260200190815260200160002060010160006101000a81548173ffffffffffffffffffffffffffffffffffffffff021916908373ffffffffffffffffffffffffffffffffffffffff1602179055506110c361106d846114e3565b6003600061107a87610e55565b73ffffffffffffffffffffffffffffffffffffffff1673ffffffffffffffffffffffffffffffffffffffff1681526020019081526020016000205461152b90919063ffffffff16565b600360006110d086610e55565b73ffffffffffffffffffffffffffffffffffffffff1673ffffffffffffffffffffffffffffffffffffffff16815260200190815260200160002081905550823373ffffffffffffffffffffffffffffffffffffffff167f2367871e9dd306f145d8e1b9b9b0cb07b42599b1366b0e48b2e02bb69f68201c60405160405180910390a3611189565b6040517fda17dbf800000000000000000000000000000000000000000000000000000000815260040160405180910390fd5b505050565b60045481565b61119c61128c565b73ffffffffffffffffffffffffffffffffffffffff166111ba610e2c565b73ffffffffffffffffffffffffffffffffffffffff1614611210576040517f08c379a000000000000000000000000000000000000000000000000000000000815260040161120790611d1f565b60405180910390fd5b600073ffffffffffffffffffffffffffffffffffffffff168173ffffffffffffffffffffffffffffffffffffffff161415611280576040517f08c379a000000000000000000000000000000000000000000000000000000000815260040161127790611ee3565b60405180910390fd5b61128981611335565b50565b600033905090565b61129c6109ec565b6112db576040517f08c379a00000000000000000000000000000000000000000000000000000000081526004016112d290611f4f565b60405180910390fd5b60008060006101000a81548160ff0219169083151502179055507f5db9ee0a495bf2e6ff9c91a7834c1ba4fdd244a5e8aa4e537bd38aeae4b073aa61131e61128c565b60405161132b9190611b57565b60405180910390a1565b60008060019054906101000a900473ffffffffffffffffffffffffffffffffffffffff16905081600060016101000a81548173ffffffffffffffffffffffffffffffffffffffff021916908373ffffffffffffffffffffffffffffffffffffffff1602179055508173ffffffffffffffffffffffffffffffffffffffff168173ffffffffffffffffffffffffffffffffffffffff167f8be0079c531659141344cd1fd0a4f28419497f9722a3daafe3b4186f6b6457e060405160405180910390a35050565b6114026109ec565b15611442576040517f08c379a000000000000000000000000000000000000000000000000000000000815260040161143990611cb3565b60405180910390fd5b60016000806101000a81548160ff0219169083151502179055507f62e78cea01bee320cd4e420270b5ea74000d11b0c9f74754ebdbfc544b05a25861148561128c565b6040516114929190611b57565b60405180910390a1565b60006114dc60646114ce600554600160008781526020019081526020016000206004015461154190919063ffffffff16565b61155790919063ffffffff16565b9050919050565b60006115246001600084815260200190815260200160002060090154600160008581526020019081526020016000206004015461152b90919063ffffffff16565b9050919050565b600081836115399190611f6f565b905092915050565b6000818361154f9190611d6e565b905092915050565b600081836115659190611df7565b905092915050565b604051806101600160405280600073ffffffffffffffffffffffffffffffffffffffff168152602001600073ffffffffffffffffffffffffffffffffffffffff16815260200160608152602001606081526020016000815260200160608152602001600060ff168152602001600060ff1681526020016000815260200160008152602001600081525090565b82805461160590611c24565b90600052602060002090601f016020900481019282611627576000855561166e565b82601f1061164057803560ff191683800117855561166e565b8280016001018555821561166e579182015b8281111561166d578235825591602001919060010190611652565b5b50905061167b919061167f565b5090565b5b80821115611698576000816000905550600101611680565b5090565b6000819050919050565b6116af8161169c565b82525050565b60006020820190506116ca60008301846116a6565b92915050565b600080fd5b600080fd5b6116e38161169c565b81146116ee57600080fd5b50565b600081359050611700816116da565b92915050565b60006020828403121561171c5761171b6116d0565b5b600061172a848285016116f1565b91505092915050565b600073ffffffffffffffffffffffffffffffffffffffff82169050919050565b600061175e82611733565b9050919050565b61176e81611753565b82525050565b600081519050919050565b600082825260208201905092915050565b60005b838110156117ae578082015181840152602081019050611793565b838111156117bd576000848401525b50505050565b6000601f19601f8301169050919050565b60006117df82611774565b6117e9818561177f565b93506117f9818560208601611790565b611802816117c3565b840191505092915050565b6118168161169c565b82525050565b600060ff82169050919050565b6118328161181c565b82525050565b6000610160830160008301516118516000860182611765565b5060208301516118646020860182611765565b506040830151848203604086015261187c82826117d4565b9150506060830151848203606086015261189682826117d4565b91505060808301516118ab608086018261180d565b5060a083015184820360a08601526118c382826117d4565b91505060c08301516118d860c0860182611829565b5060e08301516118eb60e0860182611829565b5061010083015161190061010086018261180d565b5061012083015161191561012086018261180d565b5061014083015161192a61014086018261180d565b508091505092915050565b6000602082019050818103600083015261194f8184611838565b905092915050565b60008115159050919050565b61196c81611957565b82525050565b60006020820190506119876000830184611963565b92915050565b600080fd5b600080fd5b600080fd5b60008083601f8401126119b2576119b161198d565b5b8235905067ffffffffffffffff8111156119cf576119ce611992565b5b6020830191508360018202830111156119eb576119ea611997565b5b9250929050565b6119fb8161181c565b8114611a0657600080fd5b50565b600081359050611a18816119f2565b92915050565b60008060008060008060008060008060006101008c8e031215611a4457611a436116d0565b5b60008c013567ffffffffffffffff811115611a6257611a616116d5565b5b611a6e8e828f0161199c565b9b509b505060208c013567ffffffffffffffff811115611a9157611a906116d5565b5b611a9d8e828f0161199c565b99509950506040611ab08e828f016116f1565b97505060608c013567ffffffffffffffff811115611ad157611ad06116d5565b5b611add8e828f0161199c565b96509650506080611af08e828f01611a09565b94505060a0611b018e828f01611a09565b93505060c0611b128e828f016116f1565b92505060e0611b238e828f016116f1565b9150509295989b509295989b9093969950565b6000611b4182611733565b9050919050565b611b5181611b36565b82525050565b6000602082019050611b6c6000830184611b48565b92915050565b611b7b81611753565b82525050565b6000602082019050611b966000830184611b72565b92915050565b611ba581611b36565b8114611bb057600080fd5b50565b600081359050611bc281611b9c565b92915050565b600060208284031215611bde57611bdd6116d0565b5b6000611bec84828501611bb3565b91505092915050565b7f4e487b7100000000000000000000000000000000000000000000000000000000600052602260045260246000fd5b60006002820490506001821680611c3c57607f821691505b60208210811415611c5057611c4f611bf5565b5b50919050565b600082825260208201905092915050565b7f5061757361626c653a2070617573656400000000000000000000000000000000600082015250565b6000611c9d601083611c56565b9150611ca882611c67565b602082019050919050565b60006020820190508181036000830152611ccc81611c90565b9050919050565b7f4f776e61626c653a2063616c6c6572206973206e6f7420746865206f776e6572600082015250565b6000611d09602083611c56565b9150611d1482611cd3565b602082019050919050565b60006020820190508181036000830152611d3881611cfc565b9050919050565b7f4e487b7100000000000000000000000000000000000000000000000000000000600052601160045260246000fd5b6000611d798261169c565b9150611d848361169c565b9250817fffffffffffffffffffffffffffffffffffffffffffffffffffffffffffffffff0483118215151615611dbd57611dbc611d3f565b5b828202905092915050565b7f4e487b7100000000000000000000000000000000000000000000000000000000600052601260045260246000fd5b6000611e028261169c565b9150611e0d8361169c565b925082611e1d57611e1c611dc8565b5b828204905092915050565b6000611e338261169c565b91507fffffffffffffffffffffffffffffffffffffffffffffffffffffffffffffffff821415611e6657611e65611d3f565b5b600182019050919050565b7f4f776e61626c653a206e6577206f776e657220697320746865207a65726f206160008201527f6464726573730000000000000000000000000000000000000000000000000000602082015250565b6000611ecd602683611c56565b9150611ed882611e71565b604082019050919050565b60006020820190508181036000830152611efc81611ec0565b9050919050565b7f5061757361626c653a206e6f7420706175736564000000000000000000000000600082015250565b6000611f39601483611c56565b9150611f4482611f03565b602082019050919050565b60006020820190508181036000830152611f6881611f2c565b9050919050565b6000611f7a8261169c565b9150611f858361169c565b9250827fffffffffffffffffffffffffffffffffffffffffffffffffffffffffffffffff03821115611fba57611fb9611d3f565b5b82820190509291505056fea264697066735822122050f47b716df0c6a9df59a19da4a436d7721578794885b5bb6aaabd97b4cc44bf64736f6c634300080b0033",
  "immutableReferences": {},
  "source": "// SPDX-License-Identifier: MIT\npragma solidity >=0.8.0 <0.9.0;\nimport \"@openzeppelin/contracts/utils/math/SafeMath.sol\";\nimport \"@openzeppelin/contracts/security/Pausable.sol\";\nimport \"@openzeppelin/contracts/access/Ownable.sol\"; //use AccessControl in the future\n\ncontract broccoli is Pausable, Ownable {\n  \n  using SafeMath for uint;\n\n  struct Item {\n      address payable seller;\n      address payable buyer;\n      string name;\n      string description;\n      uint price;\n      string image;\n      uint8 category;\n      uint8 subCategory;\n      uint timestamp;\n      uint runtime;\n      uint deposit;\n  }\n\n  mapping(uint => Item) items;\n  uint public numItems;\n  mapping(address => uint) pendingWithdrawals;\n  uint public minimumDepositRatio; //100>=minimumDepositRatio>=0\n  uint public cut; //200>=cut>=100\n\n  error MinimumDepositNotMet();\n  error NotEnoughEther();\n  error AlreadySold();\n  error ItemDoesNotExist();\n  error CutNotValid();\n  error MinimumDepositNotValid();\n\n  event ItemAdded(address indexed seller, uint indexed id);\n  event ItemBought(address indexed buyer, uint indexed id);\n  event Withdrew(address indexed withdrawer, uint amount);\n  event DonationReceived(address indexed donor, uint amount);\n\n\n  modifier costs(uint _amount) {\n    if (msg.value < _amount)\n        revert NotEnoughEther();\n    _;\n    //if wanting to send rest ether back - else keep them as donation (-:\n    //if (msg.value > _amount)\n    //    payable(msg.sender).transfer(msg.value - _amount)\n  }\n\n  modifier minimumDeposit(uint _askingPrice, uint _minimumDepositRatio) {\n    if (msg.value < _askingPrice * _minimumDepositRatio / 100)\n        revert MinimumDepositNotMet();\n    _;\n  }\n\n  modifier itemExists(uint id) {\n    if (id > numItems) \n        revert ItemDoesNotExist();\n    _;   \n  }\n\n  modifier cutValid(uint _cut) {\n    if (_cut < 100 || _cut > 200)\n        revert CutNotValid();\n    _;\n  }\n\n  modifier minimumDepositValid(uint _minimumDepositRatio) {\n    if (_minimumDepositRatio < 0 || _minimumDepositRatio > 100)\n        revert MinimumDepositNotValid();\n    _;\n  }\n\n  constructor(uint _minimumDepositRatio, uint _cut) cutValid(_cut) minimumDepositValid(_minimumDepositRatio) {\n    minimumDepositRatio = _minimumDepositRatio;\n    cut = _cut;\n  }\n\n\n  //Public Getters\n  function getItem(uint256 id) public view itemExists(id) returns (Item memory) {\n    return items[id];\n  }\n  \n  function getSeller(uint256 id) public view itemExists(id) returns (address payable) {\n    return items[id].seller; \n  }\n\n\n  //Public Methods\n  function setCut(uint _cut) public onlyOwner whenNotPaused cutValid(_cut) {\n    cut = _cut;\n  }\n\n  function setMinimumDepositRatio(uint _minimumDepositRatio) public onlyOwner whenNotPaused minimumDepositValid(_minimumDepositRatio) {\n    minimumDepositRatio = _minimumDepositRatio;\n  }\n\n  function pause() public onlyOwner {\n    _pause();\n  }\n\n  function unpause() public onlyOwner {\n    _unpause();\n  }\n\n  function addItem(\n      string calldata _name, \n      string calldata _description, \n      uint _price, \n      string calldata _image, \n      uint8 _category, \n      uint8 _subCategory, \n      uint _timestamp, \n      uint _runtime) \n      payable public whenNotPaused minimumDeposit(_price, minimumDepositRatio) {\n    numItems = numItems++;\n    Item storage i = items[numItems]; \n    i.name = _name;\n    i.description = _description;\n    i.price = _price;\n    i.image = _image;\n    i.category = _category;\n    i.subCategory = _subCategory;\n    i.timestamp = _timestamp;\n    i.runtime = _runtime;\n    i.seller = payable(msg.sender);\n    i.deposit = msg.value;\n    emit ItemAdded(msg.sender, numItems);\n  }\n\n  function buyItem(uint256 id) payable public whenNotPaused itemExists(id) costs(getPriceToPay(id)) {\n    if(items[id].buyer == address(0)) {\n        items[id].buyer = payable(msg.sender);\n        pendingWithdrawals[getSeller(id)] = pendingWithdrawals[getSeller(id)].add(getAmountToSendToSeller(id));\n        emit ItemBought(msg.sender, id);\n    } else {\n        revert AlreadySold();\n    }\n  }\n\n  //Withdraw pattern instead of direct transfer after item has sold to prevent locking contract in transfer loop\n  //https://docs.soliditylang.org/en/latest/common-patterns.html#withdrawal-from-contracts\n  function withdraw() public whenNotPaused {\n    uint amount = pendingWithdrawals[msg.sender];\n    //zero the pending refund before sending to prevent re-entrancy attacks\n    pendingWithdrawals[msg.sender] = 0;\n    payable(msg.sender).transfer(amount);\n    emit Withdrew(msg.sender, amount);\n  }\n\n  receive() external payable {\n    //receive ether as donations\n    emit DonationReceived(msg.sender, msg.value);\n  }\n\n\n  //Internal Methods\n  function getPriceToPay(uint256 id) internal view returns (uint256) {\n    //return price that buyer has to pay (including site cut)\n    return items[id].price.mul(cut).div(100);\n  }\n\n  function getAmountToSendToSeller(uint256 id) internal view returns (uint256) {\n    //return amount to send to seller = asking price of item + deposit\n    return items[id].price.add(items[id].deposit);\n  }\n}\n",
  "sourcePath": "/home/staddle/verbose-broccoli/ethereum-contract/contracts/broccoli.sol",
  "compiler": {
    "name": "solc",
    "version": "0.8.11+commit.d7f03943.Emscripten.clang"
  },
  "schemaVersion": "3.4.5",
  "updatedAt": "2022-03-10T13:37:12.007Z",
  "devdoc": {
    "kind": "dev",
    "methods": {
      "owner()": {
        "details": "Returns the address of the current owner."
      },
      "paused()": {
        "details": "Returns true if the contract is paused, and false otherwise."
      },
      "renounceOwnership()": {
        "details": "Leaves the contract without owner. It will not be possible to call `onlyOwner` functions anymore. Can only be called by the current owner. NOTE: Renouncing ownership will leave the contract without an owner, thereby removing any functionality that is only available to the owner."
      },
      "transferOwnership(address)": {
        "details": "Transfers ownership of the contract to a new account (`newOwner`). Can only be called by the current owner."
      }
    },
    "version": 1
  },
  "userdoc": {
    "kind": "user",
    "methods": {},
    "version": 1
  }
}